:020000040000FA
:02000000F528E1
:08000800A000A00E0308831202
:100010000313C1008312031303100A1A0314A30D60
:10002000A20D03108A190314A30DA20D0314A10D30
:100030008A110A12831203132A08C5002C08C6006D
:100040002D08C7002E08C800831203138C1A5128EC
:10005000831203136014831203134508AA00460891
:10006000AC004708AD004808AE008312031303102C
:10007000A10C031C090023188A15231C8A11A3183C
:100080000A16A31C0A120310A20CA30C0310A20C44
:10009000A30C41088300200E0900831203138C1265
:1000A00028288312031371149810EF01F0015E28C1
:1000B000F00A031D5E28EF0A031976288C1E5828C3
:1000C0001A08E7008C1298187628EF01F0016E28C4
:1000D000F00A031D6E28EF0A031976288C1E682883
:1000E0001A08E8008C129818762877287110981052
:1000F00091226010FD0167085507FF000318FD0AF3
:10010000601879286010FD01680856078316A10061
:1001100003188312FD0A6018822879229522550857
:100120007F06031DBB2808108810792295225608E7
:1001300083162106031DA5288312081188110812B1
:10014000881297220A3099224D28831208118811AB
:10015000081288168D2208118811081688128D221F
:1001600008118815081288128D22081588110812A6
:1001700088128D22952808148810FD01B20187305D
:10018000C00060107908C0070318B20A0319FD0AFD
:100190007D08B2070318FD0A6018C128FD0112107E
:1001A000921492111212921212139101FF308316BF
:1001B000920001308312BA00BC00BB01BD011215D0
:1001C000FF308316920083123208A4004008A50075
:1001D000A40CA50C03181716A40CA50C031897164D
:1001E00025089500171597158D28A0018312031374
:1001F000A101A201A301A401A501A701A801A901D0
:10020000AA01AC01AD01AE01B201B301B401B50167
:10021000B601B701B801B901BA01BB01BC01BD010A
:10022000BE01BF01C001C101C301C401C501C601B6
:10023000C701C801C901CA01CB01CC01CD01CE0162
:10024000CF01D001D101D201D301D401D501D60112
:10025000D701D801D901DA01DB01DC01DD01DE01C2
:10026000DF01E001E101E201E301E401E501E60172
:10027000E701E801E901EA01EB01EC01ED01EE0122
:10028000EF01F001F101F201F401F501F601F701CE
:10029000F801F901FA01FB01FC01FD01FE01FF017A
:1002A000A0018316A101A201A001A0018312850172
:1002B00089010030831689002F30850003309F00AC
:1002C00083121F1486010130831686008312870172
:1002D0009B308316870083128801003083168800C4
:1002E0000030831285000030860000308700003027
:1002F00088009D2226308316980081309900831251
:10030000981718168B170B178C1283168C16A201D0
:1003100079227D22812285228922882988298312B7
:10032000031303108B1B0314C40DC30D8B13063072
:1003300083120313A800A122271CA2290C30A52296
:100340000130A5228430A5225030A9224F30A922A5
:100350005330A9224930A9224330A9224930A92289
:100360004F30A9224E30A922C430A5224930A922FB
:100370004E30A9224930A9224330A9224930A9226E
:100380004130A9224C30A922831203130310C30C5D
:10039000C40C03188B17CC2983120313AD2A8312C4
:1003A000031303108B1B0314C40DC30D8B130730F1
:1003B00083120313A800A122271CE2290C30A522D6
:1003C0000130A5228030A5225230A9224F30A92227
:1003D0005430A9224130A9224E30A9224430A9220A
:1003E0004F30A9222030A9224530A9224A30A92223
:1003F0004530A9225330A922C030A5224430A92279
:100400004330A9223D30A922C630A5225030A9226E
:100410004130A9225030A9223D30A922C330A52263
:100420005B08303EA922C430A5225A08303EA922DA
:10043000CA30A5225E08303EA922CB30A5225D0835
:10044000303EA922831203130310C30CC40C0318FB
:100450008B172A2A83120313AD2A83120313031066
:100460008B1B0314C40DC30D8B13083083120313AD
:10047000A800A122271C402A0C30A5220130A52269
:100480008430A5225030A9224F30A9225330A9220E
:100490004930A9224330A9224930A9224F30A9224C
:1004A0004E30A922C530A5224630A9224930A922C2
:1004B0004E30A9224130A9224C30A92283120313C5
:1004C0000310C30CC40C03188B17662A8312031382
:1004D000AD2A831203130310A30DA20D0310A30D65
:1004E000A20D0314A10D0800831203130310A10D24
:1004F000080069228A150A12002869228A150A1240
:10050000D32869228A150A12022969228A150A1239
:100510007C2969228A150A12862B69228A150A12F9
:100520007D2C69228A150A12852C7422CF29742207
:100530002D2A69228A150A12892D69228A150A1222
:10054000AE2D69228A150A121E2E69228A150A12F8
:10055000DD2D69228A150A12E22D8312031303107E
:10056000A10C031C080023188A15231C8A11A31848
:100570000A16A31C0A120310A20CA30C0310A20C4F
:04058000A30C0800C0
:101000008130831203139F0083169F178312772763
:1010100083161E088312C0001E08B20089309F008C
:1010200083169F13831277271E08B30091309F0009
:1010300083169F13831277271E08B400A1309F00E8
:1010400083169F13831277271E08F8000030A40030
:101050000A30A50079273208A4004008A5007B27A4
:101060004E08B6004F08B5005008A5005108A4006E
:10107000CC01CB01CA016430B7007D272408C90028
:101080006430A402031C46286430C9000030A40068
:101090002730A5007927A4013308A5007B274E0837
:1010A000B6004F08B5005008A5005108A400CC01B7
:1010B000CB01CA016430B7007D272408D500643015
:1010C000A402031C65286430D5000030A40027303A
:1010D000A5007927A4013408A5007B274E08B60097
:1010E0004F08B5005008A5005108A400CC01CB0161
:1010F000CA016430B7007D272408D6006430A402FA
:10110000031C84286430D6000030A4002830A500D9
:101110007927A4017808A5007B274E08B6004F0860
:10112000B5005008A5005108A400CC01CB01CA01AC
:101130006430B7007D272408F9006630A402031C40
:10114000A3286630F9004908A4007F276018A32867
:101150002408D7002508D8003508D9005508A40070
:101160007F276018AE282408DA002508DB00350840
:10117000D9005608A4007F276018B9282408DD008C
:101180002508DE003508DF007908A4007F276018F5
:10119000C4282408FC002508FB003508FA00D028E4
:1011A00083120313892F83120313121092149211C6
:1011B0001212921212139101FF3083169200013025
:1011C0008312BA00BC00BB01BD0112153208BE007B
:1011D0004008BF00FF308316920083123208A4003B
:1011E0004008A500A40CA50C03181716A40CA50C08
:1011F000031897162508950017159715FF288312D1
:101200000313892F83120313071C08295327082966
:1012100083120313892F8312031303108B1B0314F0
:10122000C40DC30D8B13013083120313A800712763
:10123000271C1E290C307327013073278030732739
:1012400050307527573075274D3075273D3075273D
:101250008730732725307527C030732744307527B2
:10126000433075273D307527C630732725307527E5
:10127000C930732750307527413075273D307527A9
:10128000CF30732725307527843073275908303EB7
:101290007527853073275808303E752786307327A9
:1012A0005708303E7527C33073275C08303E7527DA
:1012B000C43073275B08303E7527C53073275A0842
:1012C000303E7527CC3073275F08303E7527CD3010
:1012D00073275E08303E7527CE3073275D08303E99
:1012E0007527831203130310C30CC40C03188B1748
:1012F000792983120313892F83120313871CEF2983
:101300001210921492111212921212139101FF30C4
:101310008316920001308312BA00BC00BB01BD01EC
:1013200012156108013A031DE82908148810E2012A
:10133000E130E30060107908E3070318E20A0319BB
:10134000FD0A7D08E2070318FD0A60189A29FF309C
:101350008316920083126208A4006308A500A40CFF
:10136000A50C03181716A40CA50C0318971625082E
:101370009500171597150030A4000A30A5007927AD
:101380006208A4006308A5007B274E08B6004F083A
:10139000B5005008A5005108A400CC01CB01CA013A
:1013A0006430B7007D272408F7006430A402031CD2
:1013B000DB296430F7007708A4007F276018DB2959
:1013C0002408E6002508E5003508E4005527EF2944
:1013D000081088140130E2001E30E3009A298312BD
:1013E0000313892F8312031303108B1B0314C40DE3
:1013F000C30D8B13023083120313A8007127271C1F
:10140000052A0C307327013073278030732725306D
:1014100075272030752755307527443075273D30A6
:10142000752788307327253075278A307327503009
:10143000752752307527453075272B307527C030FA
:101440007327253075272030752750307527573082
:1014500075274D3075273D307527CB3073273D30CC
:101460007527CE3073272E307527853073275C089B
:10147000303E7527863073275B08303E75278730EE
:1014800073275A08303E7527C63073276408303EEC
:101490007527C73073276508303E7527C830732716
:1014A0006608303E7527CC3073277A08303E7527A2
:1014B000CD3073277B08303E7527CF3073277C08EB
:1014C000303E7527831203130310C30CC40C03189A
:1014D0008B176A2A83120313892F831203130310B5
:1014E0008B1B0314C40DC30D8B1303308312031322
:1014F000A8007127271C802A0C307327013073271E
:1015000080307327413075276E3075276730752717
:10151000753075276C3075276F307527203075272B
:10152000313075273A3075278C3073278A3075270C
:10153000C0307327413075276E30752767307527A7
:10154000753075276C3075276F30752720307527FB
:10155000323075273A307527CC3073278A3075279B
:10156000893073276908303E75278A3073276A08E7
:10157000303E75278B3073276B08303E7527C93096
:1015800073276C08303E7527CA3073276D08303ECC
:101590007527CB3073276E08303E752783120313EF
:1015A0000310C30CC40C03188B17D62A8312031321
:1015B000892F831203135608133C031CE32A0130BE
:1015C000B200C0012E2B56081A3C031CEB2AB201B4
:1015D000EB30C0002E2B5608243C031CF32AB2012A
:1015E000F630C0002E2B56082E3C031CFB2AB201FD
:1015F000EB30C0002E2B5608373C031C032BB201E6
:10160000E130C0002E2B5608403C031C0B2BB201CE
:10161000F630C0002E2B5608483C031C132BB20199
:10162000F630C0002E2B56084F3C031C1C2B0130FB
:10163000B2001430C0002E2B5608583C031C252B3A
:101640000130B2001E30C0002E2B5608603C031C37
:101650002E2B0130B2001E30C0002E2B831203133C
:10166000892F831203135608133C031C3B2BB20132
:101670009930C000832B56081C3C031C432BB2013D
:101680009930C000832B5608243C031C4B2BB2011D
:10169000B830C000832B56082E3C031C532BB201DC
:1016A000D730C000832B5608373C031C5B2BB2019C
:1016B000D730C000832B5608403C031C632BB2017B
:1016C000E130C000832B5608483C031C6B2BB20151
:1016D000E130C000832B56084F3C031C732BB20132
:1016E000EB30C000832B5608583C031C7B2BB20107
:1016F000E130C000832B5608603C031C832BB201F1
:10170000E130C000832B83120313892F831203134C
:10171000871D242CFE0191309F0083169F13831296
:1017200077271E08B4000030A4002730A5007927D1
:10173000A4013408A5007B274E08B6004F08B50069
:101740005008A5005108A400CC01CB01CA016430A7
:10175000B7007D272408D6006430A402031CB22BF6
:101760006430D6005608A4007F276018B22B2408E6
:10177000DD002508DE003508DF005D27081588112B
:10178000081288125F2708118815081288125F272F
:1017900008118811081688125F270811881108128D
:1017A00088165F275608283C031C8A2B0130FE0050
:1017B00091309F0083169F13831277271E08B40071
:1017C0000030A4002730A5007927A4013408A50023
:1017D0007B274E08B6004F08B5005008A5005108F9
:1017E000A400CC01CB01CA016430B7007D272408D6
:1017F000D6006430A402031CFF2B6430D6005608C8
:10180000A4007F276018FF2B2408DD002508DE00D8
:101810003508DF005D2708118811081288165F2738
:1018200008118811081688125F27081188150812F8
:1018300088125F2708158811081288125F275A300E
:101840005602031CD62B8A2B83120313892F831273
:10185000031303108B1B0314C40DC30D8B1304302F
:1018600083120313A8007127271C3A2C0C3073270E
:1018700001307327803073275030752772307527F9
:10188000753075276530752762307527613075278B
:101890002030752750307527413075275030752717
:1018A0003D307527C230732767307527693075273B
:1018B000723075276F3075273D3075278B30732751
:1018C0005F08303E75278C3073275E08303E7527E1
:1018D0008D3073275D08303E7527C73073277E082B
:1018E000303E7527831203130310C30CC40C031876
:1018F0008B177A2C83120313892F83120313323030
:101900008127822C83120313892F512763273930B3
:1019100056020318A02C08118811081288165F2798
:1019200008118811081688125F27081188150812F7
:1019300088125F2708158811081288125F27852CE6
:1019400056083B3C0318B92C081588110812881258
:101950005F2708118815081288125F27081188115F
:10196000081688125F2708118811081288165F2749
:10197000852C0811881108128812512763273130ED
:1019800055020318FB2C08148810B201EB30C0007C
:1019900060107908C0070318B20A0319FD0A7D0810
:1019A000B2070318FD0A6018C82C12109214921185
:1019B0001212921212139101FF308316920001301D
:1019C0008312BA00BC00BB01BD011215FF308316A3
:1019D000920083123208A4004008A500A40CA50CB4
:1019E00003181716A40CA50C0318971625089500C4
:1019F00017159715BD2C5508333C0318022D0810F8
:101A00008814C52C08108810652719308327082DE5
:101A100083120313892F8312031303108B1B0314E8
:101A2000C40DC30D8B13053083120313A800712757
:101A3000271C1E2D0C30732701307327803073272D
:101A4000503075274F307527533075272E30752746
:101A50004330752745307527523075274F3075272D
:101A60002030752720307527503075275230752764
:101A7000453075273D307527C030732744307527B2
:101A8000433075273D307527C530732720307527C3
:101A900050307527503075273D307527CB30732770
:101AA0002030752750307527573075278E307327B3
:101AB0007B08303E75278F3073277C08303E7527B2
:101AC000C33073275B08303E7527C43073275A082C
:101AD000303E7527C93073275E08303E7527CA30FF
:101AE00073275D08303E7527CE3073277A08303E65
:101AF0007527CF3073277B08303E75278312031379
:101B00000310C30CC40C03188B17862D8312031308
:101B1000892FF200922D000000000000000000005C
:101B2000000000000A30F400000000006330F500FF
:101B3000000000000000C830F60000000000F60BB6
:101B40009D2D000000000000F50B982D0000000006
:101B50000000F40B942DF20B8B2D892F83120313AD
:101B6000A8010A3081278312031303108B1B03146F
:101B7000C40DC30D8B13303085270A3081273030D8
:101B8000852705308727303085272030852720306E
:101B9000852780308527831203130310C30CC40CE0
:101BA00003188B17892F8312031301308127080034
:101BB00083120313A40086100A2E83120313A400B9
:101BC0008610E62D83120313A40086140615A400C4
:101BD0008611061286120613241A8615A41A0616F2
:101BE000241B8616A41B061706110000000006150C
:101BF000861106128612061324188615A4180616D6
:101C000024198616A41906170611000000000615EF
:101C1000D325892F0615A4008611061286120613F5
:101C2000241A8615A41A0616241B8616A41B06174A
:101C30000611000000000615D325892F8312031317
:101C4000A70128082906031D27142808A900892FA1
:101C5000C830A400A40B2A2E1F15000000001F1975
:101C60002F2E892F831203136010B501B6012408AB
:101C7000CA00B7010730CB002408D1002508D200E4
:101C80003508D300CB0B452E5B2E0310CA0DB70DC4
:101C90004B08053A0319542E4B08023A0319542EE7
:101CA0004B08013A031D422E4A08B6070318B50A2D
:101CB0003708B507422E2508B6070318B50A831260
:101CC0000313892F8312031360101030CD00CE014F
:101CD000CF01D001D101B701CA012408CB002508EA
:101CE000CC00CD0B772EB60DB51B8726A12EB51FC8
:101CF000832E4D08D2000310CC0DCB0DCA0DB70DAD
:101D0000D20B7B2E87260310B60DB50D6B2E4C081B
:101D1000D107031896264B08D00703189D264A08BA
:101D2000CF070318B70A3708CE070800CB0A031DF0
:101D30000800CA0A0319B70A0800CA0A0319B70A31
:101D4000080083120313892F831203136010D2013A
:101D5000CD01CE01CF01D0012030D100D4264C08D6
:101D60005002031DBD2E4B084F02031DBD2E4A0815
:101D70004E02031DBD2E37084D02031CCF2E37081F
:101D8000CD024A08031C4A0FCE024B08031C4B0F1E
:101D9000CF024C08031C4C0FD00203102414D10BAB
:101DA000AE2E83120313892FA40DA50DB50DB60D0C
:101DB000CD0DCE0DCF0DD00D080083120313601092
:101DC000B501A5016430A402031CE82EB50AE32E78
:101DD000A4070A30A402031CEF2EA50AEA2EA407CA
:101DE000892FAA00FA2E0000000000000000000069
:101DF000000000001630AC009630AD00AD0BFE2E9A
:101E0000AC0BFC2E0000AA0BF32E892FAA000F2F7B
:101E100000000000000000000000000000000A3088
:101E2000AC00000000006330AD00000000000000C6
:101E3000C830AE0000000000AE0B1A2F00000000FA
:101E40000000AD0B152F000000000000AC0B112F9F
:101E5000AA0B082F892FAA00342F000000000000D1
:101E60000000000000000000F630AC000000AC0BE9
:101E7000362F00000000000000000000AA0B2D2FEC
:101E8000892F831203130310A30DA20D0314A30DB6
:101E9000A20D0314A10D0800831203130310A10D5A
:101EA00008004C2700284C270B294C27F2294C27E7
:101EB0006D2A4C27D92A4C27312B4C27272C4C270D
:101EC0007D2C4C27852C4C270B2D41278A110A127B
:101ED0008F2941278A110A12CF2941278A110A1214
:101EE0002D2A4C271E2E4C27DD2D4C27E22D4C276A
:101EF000282E4C27322E4C27622E4C27A42E4C27FE
:101F0000DD2E4C27F12E4C27062F4C27D82D4C27A1
:101F10002B2F831203130310A10C031C080023189A
:101F20008A15231C8A11A3180A16A31C0A1203106F
:0C1F3000A20CA30C0310A20CA30C0800D0
:02400E00323D41
:10420000FF00FF00FF00FF00FF00FF00FF00FF00B6
:10421000FF00FF00FF00FF00FF00FF00FF00FF00A6
:10422000FF00FF00FF00FF00FF00FF00FF00FF0096
:10423000FF00FF00FF00FF00FF00FF00FF00FF0086
:10424000FF00FF00FF00FF00FF00FF00FF00FF0076
:10425000FF00FF00FF00FF00FF00FF00FF00FF0066
:10426000FF00FF00FF00FF00FF00FF00FF00FF0056
:10427000FF00FF00FF00FF00FF00FF00FF00FF0046
:10428000FF00FF00FF00FF00FF00FF00FF00FF0036
:10429000FF00FF00FF00FF00FF00FF00FF00FF0026
:1042A000FF00FF00FF00FF00FF00FF00FF00FF0016
:1042B000FF00FF00FF00FF00FF00FF00FF00FF0006
:1042C000FF00FF00FF00FF00FF00FF00FF00FF00F6
:1042D000FF00FF00FF00FF00FF00FF00FF00FF00E6
:1042E000FF00FF00FF00FF00FF00FF00FF00FF00D6
:1042F000FF00FF00FF00FF00FF00FF00FF00FF00C6
:10430000FF00FF00FF00FF00FF00FF00FF00FF00B5
:10431000FF00FF00FF00FF00FF00FF00FF00FF00A5
:10432000FF00FF00FF00FF00FF00FF00FF00FF0095
:10433000FF00FF00FF00FF00FF00FF00FF00FF0085
:10434000FF00FF00FF00FF00FF00FF00FF00FF0075
:10435000FF00FF00FF00FF00FF00FF00FF00FF0065
:10436000FF00FF00FF00FF00FF00FF00FF00FF0055
:10437000FF00FF00FF00FF00FF00FF00FF00FF0045
:10438000FF00FF00FF00FF00FF00FF00FF00FF0035
:10439000FF00FF00FF00FF00FF00FF00FF00FF0025
:1043A000FF00FF00FF00FF00FF00FF00FF00FF0015
:1043B000FF00FF00FF00FF00FF00FF00FF00FF0005
:1043C000FF00FF00FF00FF00FF00FF00FF00FF00F5
:1043D000FF00FF00FF00FF00FF00FF00FF00FF00E5
:1043E000FF00FF00FF00FF00FF00FF00FF00FF00D5
:1043F000FF00FF00FF00FF00FF00FF00FF00FF00C5
:00000001FF
